:1000000014C1000042C1000040C100003EC1000018
:100010003CC100003AC1000038C1000036C10000F8
:1000200034C1000032C1000030C100002EC1000008
:100030002CC100002AC1000028C1000026C1000018
:1000400024C1000022C1000020C100001EC1000028
:100050001CC100001AC1000018C10000E1C5000069
:1000600014C1000050C6000025C600000EC10000EB
:100070000CC100000AC1000008C1000006C1000058
:1000800004C1000002C1000000C10000FEC0000069
:10009000FCC00000FAC00000F8C00000F6C000007C
:1000A000F4C00000F2C00000F0C00000EEC000008C
:1000B000ECC00000EAC00000E8C00000E6C000009C
:1000C000E4C00000E2C00000E0C00000DEC00000AC
:1000D000DCC00000DAC00000D8C00000D6C00000BC
:1000E000D4C0000061016401530157015D019B010F
:1000F00068016C01720176017A0180018401880136
:100100009B018E019201960100002100240027002E
:100110002A002D0030003300010100000401070116
:100120000A0100002200250028002B002E003100CB
:10013000340002010000050108010B01000020004D
:100140002300260029002C002F00320000010000AF
:10015000030106010901050505050705080808084A
:10016000020202020A0A080804040404010101014F
:10017000010101010303030303030303040707074A
:100180000C0C0C0C0C0C0C0C0202020206060606EF
:10019000060606060B0B0B0B0B0B0B0B01021020BC
:1001A00020080810204010204080020102010804AD
:1001B0000201010204081020408080402010080441
:1001C000020180040201804020100804020108049A
:1001D00002010102040810204080010204081020DE
:1001E000408000000A0B02090C0D0E0807030401F1
:1001F00000000000000000000000000000000000FF
:1002000000000000000000000000000000001211CB
:1002100010000000000000000000000000000000CE
:100220000000000000000000B90611241FBECFEF3F
:10023000D1E2DEBFCDBF00E00CBF12E0A0E0B2E033
:10024000E8E1F8E100E00BBF02C007900D92A8348E
:10025000B107D9F723E0A8E4B2E001C01D92A235AE
:10026000B207E1F711E0C5E1D1E000E006C0219757
:100270000109802FFE010E94DD0AC431D10780E010
:100280000807A9F725D60C940A0CBACE90E0FC0119
:100290003197E231F10508F04EC08827EE58FF4F44
:1002A0008F4F0C94DD0A809180008F7703C080917E
:1002B00080008F7D80938000089580918000877FEB
:1002C000F9CF84B58F7702C084B58F7D84BD089542
:1002D0008091B0008F7703C08091B0008F7D8093B4
:1002E000B0000895809190008F7707C080919000B2
:1002F0008F7D03C080919000877F80939000089548
:100300008091A0008F7707C08091A0008F7D03C0EF
:100310008091A000877F8093A000089580912001A4
:100320008F7707C0809120018F7D03C080912001CD
:10033000877F809320010895CF93DF93282F30E0AB
:10034000F901EE51FE4F8491F901E456FE4FD4912C
:10035000F901EA5AFE4FC491CC2389F0811196DF4E
:10036000EC2FF0E0EE0FFF1FE45CFE4FA591B4917F
:10037000EC91ED2381E090E021F480E002C080E088
:1003800090E0DF91CF9108951F93CF93DF93282FB3
:1003900030E0F901EE51FE4F8491F901E456FE4F31
:1003A000D491F901EA5AFE4FC491CC23B9F0162F2B
:1003B00081116CDFEC2FF0E0EE0FFF1FEE5DFE4FC2
:1003C000A591B4919FB7F894111104C08C91D09568
:1003D000D82302C0EC91DE2BDC939FBFDF91CF913D
:1003E0001F910895CF93DF9390E0FC01E456FE4FF8
:1003F0002491FC01EA5AFE4F8491882361F190E038
:10040000880F991FFC01E85FFE4FC591D491FC0154
:10041000EE5DFE4FA591B491611109C09FB7F894AC
:100420008881209582238883EC912E230BC0623033
:1004300061F49FB7F8948881322F309583238883A5
:10044000EC912E2B2C939FBF06C08FB7F894E881B8
:100450002E2B28838FBFDF91CF910895CF92DF920B
:10046000EF92FF920F931F93CF93DF936C017A016A
:100470008B01C0E0D0E0CE15DF0581F0D8016D9191
:100480008D01D601ED91FC910190F081E02DC60126
:100490001995892B11F02196EECF7E01C701DF91CE
:1004A000CF911F910F91FF90EF90DF90CF90089523
:1004B000089580E090E00895FC01538D448D252F30
:1004C00030E0842F90E0821B930B541710F0CF96EE
:1004D000089501970895FC01918D828D981761F020
:1004E000828DDF01A80FB11D5D968C91928D9F5F6B
:1004F0009F73928F90E008958FEF9FEF0895FC0116
:10050000918D828D981731F0828DE80FF11D858DC8
:1005100090E008958FEF9FEF0895FC01918D228D5B
:10052000892F90E0805C9F4F821B91098F739927E0
:10053000089589E592E0F1DF21E0892B09F420E0BC
:10054000822F0895FC01848DDF01A80FB11DA35AED
:10055000BF4F2C91848D90E001968F739927848FE3
:10056000A689B7892C93A089B1898C918370806406
:100570008C93938D848D981306C00288F389E02DA7
:1005800080818F7D80830895EF92FF920F931F9358
:10059000CF93DF93EC0181E0888F9B8D8C8D981336
:1005A00005C0E889F989808185FD25C0F62E0B8D6F
:1005B00010E00F5F1F4F0F731127E02E8C8DE81294
:1005C0000BC00FB607FCFACFE889F989808185FF57
:1005D000F5CFCE01B7DFF2CF8B8DFE01E80FF11D15
:1005E000E35AFF4FF0829FB7F8940B8FEA89FB899B
:1005F000808180620AC09FB7F894EE89FF8960838A
:10060000E889F98980818370806480839FBF81E05D
:1006100090E0DF91CF911F910F91FF90EF9008959F
:10062000CF93DF93EC01888D8823C1F0EA89FB89A1
:10063000808185FD05C0A889B9898C9186FD0EC091
:100640000FB607FCF5CF808185FFF2CFA889B98965
:100650008C9185FFEDCFCE0175DFE8CFDF91CF9193
:10066000089580E090E0892B19F063DF811125C0A7
:1006700080E090E0892B41F080E090E0892B21F030
:100680000E94000081111CC080E090E0892B41F0A5
:1006900080E090E0892B21F00E940000811113C0BE
:1006A00080E090E0892BA1F080E090E0892B81F040
:1006B0000E94000081110AC008950E940000D8CF56
:1006C0000E940000E1CF0E940000EACF0C940000DD
:1006D00008954F925F926F927F928F929F92AF9206
:1006E000BF92CF92DF92EF92FF920F931F93CF931F
:1006F000DF93FC018C010E5F1B4FD8014D915C9183
:100700007A01B1E0EB1AF1086701CC0CDD1CCC0CCE
:10071000DD1CEC01CC0DDD1D88809980AA80BB809A
:100720009501653519F42F5F3F4F02C02150310903
:100730002830310508F07AC0E401CE5FDD4F7880C3
:10074000872D90E0BC01022E02C0759567950A9432
:10075000E2F7CB018170992760FF28C0DF01BC5F01
:100760008D919C91119701968D939C93440F551FE9
:10077000440F551FE40FF51F91828082338322833B
:10078000F8018081918101969183808381E090E0DE
:10079000A0E0B0E004C0880F991FAA1FBB1F2A95D4
:1007A000D2F78729888381E090E042C0408151815F
:1007B0004E5F5D4FDA016C91412C512C3201439414
:1007C000028004C0440C551C661C771C0A94D2F7A6
:1007D000409446224C92AF0160E070E06E157F05B8
:1007E0007CF46F5F7F4FDA0114964D905D906D90B1
:1007F0007C9017974D925D926D927D92AD01EECFF8
:10080000188141E050E060E070E0022E04C0440F27
:10081000551F661F771F0A94D2F7412B4883EC0DB2
:10082000FD1D918280823383228302C082E090E0AA
:10083000DF91CF911F910F91FF90EF90DF90CF90BC
:10084000BF90AF909F908F907F906F905F904F90F0
:1008500008956F927F928F929F92AF92BF92CF92A4
:10086000DF92EF92FF920F931F93CF93DF93FC01E0
:10087000623519F04FEF5FEF02C041E050E03F01F9
:100880008EEF681A8BEF780AD3012D913C91890184
:1008900001501109B801660F771F660F771FDF013E
:1008A000A60FB71FCD90DD90ED90FC904C0D5D1D17
:1008B0004031510508F075C0DA01AE5FBD4F9C9024
:1008C000892D90E05C010E2C02C0B594A7940A9487
:1008D000E2F7C50181709927A0FE28C0BF017C5FA7
:1008E000EB0188819981019699838883220F331FB8
:1008F000220F331FE20FF31F51834083E282F38202
:10090000F3018081918101969183808341E050E0E1
:1009100060E070E004C0440F551F661F771FEA9423
:10092000D2F749294C9381E090E03DC0C081D1814C
:10093000CE5FDD4F2881812C912C5401839402805D
:1009400004C0880C991CAA1CBB1C0A94D2F7809482
:1009500082228882EF0120E030E0201731075CF42A
:100960002F5F3F4F8C809D80AE80BF80899299928F
:10097000A992B992F2CFCC9101E010E020E030E0F2
:100980000E2C04C0000F111F221F331F0A94D2F730
:100990000C2B0C93E60FF71F51834083E282F38206
:1009A00002C082E090E0DF91CF911F910F91FF9004
:1009B000EF90DF90CF90BF90AF909F908F907F90FF
:1009C0006F90089520E030E0482F50E0BA01022EE9
:1009D00002C0759567950A94E2F760FD0DC041E08D
:1009E00050E060E070E004C0440F551F661F771FA1
:1009F0002A95D2F7842B08952F5F3F4F2830310579
:100A000029F708950F931F93FC01FC5F1182108258
:100A100000911C0210911D0220911E0230911F02B4
:100A20004091200250912102609122027091230294
:100A3000FC010083118322833383448355836683BF
:100A40007783EE5FFB4F22E030E0318320831F91FC
:100A50000F910895AF92BF92CF92DF92EF92FF92E3
:100A60000F931F93CF93DF931F921F92CDB7DEB7E3
:100A700069834A83880F991F00914C0310914D039D
:100A8000000F111FE6EFF2E09F01265F32402017B2
:100A9000310714F41192F8CF2981FC01EA50FD4F7F
:100AA00021838A81808360E080914A036DDC101687
:100AB00011061CF501501109F801EA50FD4FC080E4
:100AC000B0904803A090460387E0E82EF12CD12C8B
:100AD000B6010E2C02C0759567950A94E2F7617015
:100AE0008A2D52DC61E08B2D4FDC60E08B2D4CDCDD
:100AF00081E0E81AF10860F7DACF61E080914A03FB
:100B00000F900F90DF91CF911F910F91FF90EF9079
:100B1000DF90CF90BF90AF9037CCEF92FF920F93C2
:100B20001F93CF937C018C0183E0000F111F8A95E6
:100B3000E1F70A5F1C4FC1E0F80111928F0140E01C
:100B40006C2FC70187DFCF5FC930B1F7CF911F91FD
:100B50000F91FF90EF9008956F927F928F929F92E6
:100B6000AF92BF92CF92DF92EF92FF920F931F93BB
:100B7000CF93DF938C017B0180E890E002C09595D4
:100B800087956A95E2F7682E782E7094E80183E0E5
:100B9000CC0FDD1F8A95E1F7CA50DD4F882483947E
:100BA000912CC42ED12C28E0A22EB12C17FD20C0F0
:100BB00080914C0390914D0308171907CCF428E05D
:100BC000E216F104A8F4C50188199909960102C03A
:100BD000359527958A95E2F720FF03C088898629F5
:100BE00002C088898721888B4889682DC80132DF37
:100BF0003FEF831A930A219689E088169104B1F693
:100C0000DF91CF911F910F91FF90EF90DF90CF90E8
:100C1000BF90AF909F908F907F906F900895F6D582
:100C20001F920F920FB60F9211242F933F938F9321
:100C30009F93AF93BF938091550290915602A091DC
:100C40005702B09158023091540223E0230F2D3700
:100C500020F40196A11DB11D05C026E8230F0296C0
:100C6000A11DB11D2093540280935502909356020A
:100C7000A0935702B0935802809150029091510274
:100C8000A0915202B09153020196A11DB11D809313
:100C9000500290935102A0935202B0935302BF911D
:100CA000AF919F918F913F912F910F900FBE0F9019
:100CB0001F9018951F920F920FB60F9211240BB62A
:100CC0000F922F933F934F935F936F937F938F93E5
:100CD0009F93AF93BF93EF93FF9389E592E032DC4C
:100CE000FF91EF91BF91AF919F918F917F916F9104
:100CF0005F914F913F912F910F900BBE0F900FBEC0
:100D00000F901F9018951F920F920FB60F921124FB
:100D10000BB60F922F938F939F93EF93FF93E091D6
:100D20006902F0916A028081E0916F02F091700295
:100D300082FD12C09081809172028F5F8F7320912B
:100D40007302821751F0E0917202F0E0E75AFD4F12
:100D5000958F8093720201C08081FF91EF919F91E6
:100D60008F912F910F900BBE0F900FBE0F901F9081
:100D70001895CF93DF9310925C0210925B0288EE7D
:100D800093E0A0E0B0E080935D0290935E02A093B8
:100D90005F02B093600288E292E090935A028093DF
:100DA000590285EC90E0909366028093650284EC92
:100DB00090E0909368028093670280EC90E09093BB
:100DC0006A028093690281EC90E090936C028093B8
:100DD0006B0282EC90E090936E0280936D0286EC41
:100DE00090E09093700280936F02109272021092C2
:100DF00073021092740210927502CDE0D0E0D0938D
:100E00004703C09346038BE090E09093490380939F
:100E100048038CE090E090934B0380934A0382E078
:100E200090E090934D0380934C0361E08DE0DADA1B
:100E300061E080914803D6DA61E080914A03D2DA1A
:100E400061E080914A03A0DAD0934703C093460340
:100E5000E6E0F3E0119283E0E634F807D9F7C0E06A
:100E6000D0E080914C0390914D03C817D9076CF5E1
:100E700040E06FE0CE01EEDDD7FD0BC080914C036A
:100E800090914D03C817D90724F447E06BE0CE01D9
:100E9000E1DD40E069E0CE01DDDDD7FD14C08091E9
:100EA0004C0390914D03C817D90714F4CE0135DED9
:100EB00080914C0390914D03C817D90724F440E06A
:100EC0006CE0CE01C7DD2196CCCFDF91CF910895A4
:100ED000CF93DF93CDB7DEB760970FB6F894DEBF40
:100EE0000FBECDBF789484B5826084BD84B5816027
:100EF00084BD85B5826085BD85B5816085BD8091E5
:100F00006E00816080936E0010928100809181005C
:100F10008260809381008091810081608093810054
:100F2000809180008160809380008091B100846016
:100F30008093B1008091B00081608093B000809177
:100F400091008260809391008091910081608093F4
:100F50009100809190008160809390008091A10029
:100F600082608093A1008091A10081608093A100A4
:100F70008091A00081608093A00080912101826017
:100F800080932101809121018160809321018091D2
:100F9000200181608093200180917A008460809399
:100FA0007A0080917A00826080937A0080917A0042
:100FB000816080937A0080917A00806880937A00C3
:100FC0001092C100E0916902F0916A0282E0808390
:100FD000E0916502F09166021082E0916702F09163
:100FE00068028FEC808310927102E0916D02F091A3
:100FF0006E0286E08083E0916B02F0916C0280814A
:1010000080618083E0916B02F0916C028081886046
:101010008083E0916B02F0916C0280818068808314
:10102000E0916B02F0916C0280818F7D80838091D2
:101030004C0390914D03181619062CF441E06CE016
:1010400080E090E007DD80914C0390914D031816ED
:1010500019062CF444E06AE080E090E0FBDC80912B
:101060004C0390914D03181619061CF480E090E093
:1010700054DD80914C0390914D0302972CF041E098
:101080006CE081E090E0E6DC80914C0390914D03B0
:1010900002972CF044E06AE081E090E0DBDC809194
:1010A0004C0390914D0302971CF081E090E035DDF8
:1010B00060E08AE097D960E089E094D960E088E058
:1010C00091D960E087E08ED982E580934E0284E07A
:1010D00094E07BD28C0196DC109349020093480285
:1010E0008DE680934F0242E5842E50E1452E512C2F
:1010F000612C712C60E1962ECE0101965C011E01DF
:1011000091E1290E311C80914F028D3639F52FB7B0
:10111000F8948091550290915602A0915702B09197
:1011200058022FBF893E9340A105B10508F422C1A2
:10113000F3E7F0934F022FB7F89460915502709146
:10114000560280915702909158022FBF6115710588
:101150008105910509F40EC1CAD10CC132E0E32E1C
:1011600032E0F32E670100E010E080914C03909193
:101170004D03083011054CF41816190684F4D601F5
:101180004C91B80180E090E009C0029744F0F6016C
:101190004081B8016850710981E090E0DDDC0F5FAB
:1011A0001F4FFFEFCF1ADF0A00311105F1F68AE079
:1011B000C3D8892B09F4E0C080914E02843409F42D
:1011C000DBC085E580934E028FB7F89400915502FD
:1011D0001091560220915702309158028FBF4091D2
:1011E000000250910102052E000C660B770B8091D6
:1011F0004A0290914B02A0914C02B0914D02840F93
:10120000951FA61FB71F80179107A207B30708F005
:10121000B1C02FB7F8948091550290915602A091D9
:101220005702B09158022FBF80934A0290934B020D
:10123000A0934C02B0934D0280914E028C34A9F0E1
:101240002CF4843409F096C064E409C0823529F096
:10125000853509F08FC065E502C062E507C0809161
:1012600048029091490235DA06C06CE48091480248
:1012700090914902EEDA8130910521F1029709F04F
:1012800079C04EE050E066E372E089E592E0E6D88E
:1012900042E050E065E472E089E592E0DFD884E066
:1012A00094E093D18C01AEDB109349020093480285
:1012B000F501292D11922A95E9F7988699869D8640
:1012C000F5014CC08091480290914902FC01EE5F0B
:1012D000FB4F0190F081E02D3197EE0FFF1FEE0FD5
:1012E000FF1FE80FF91FC080D180B6D0A301920183
:1012F00007D18B010E5F1D4FD8018C918F3F19F0E4
:1013000061DBF8011CC0F9E0CF16D1046CF000E0FD
:1013100010E0D7018D917D018F3F69F40F5F1F4F62
:1013200000311105B1F710C0E2E1F2E00FE010E08A
:1013300082918F3F31F046DBF801EE5FFD4F8083F5
:1013400003C001501109A0F78091000290910102A1
:10135000059790930102809300020CC08191D70100
:101360008D937D01E215F305C9F780924E02BDE62B
:10137000B0934F0276D9C7CE89E00E949C01892B99
:1013800039F080914E028C3419F080924E021CCFBD
:1013900088E00E949C01892B41F080914E028535A6
:1013A00021F0E4E4E0934E020FCF87E00E949C011D
:1013B000892B09F409CF80914E02823509F404CFBC
:1013C000FCE4F0934E0200CF8F929F92AF92BF92B7
:1013D000CF92DF92EF92FF92CF93DF93EC0168817F
:1013E00079818A819B81611571058105910521F4BF
:1013F00064E279ED8BE597E02DE133EF41E050E0D9
:101400007FD049015A019B01AC01A7EAB1E494D015
:101410006B017C01ACEEB4EFA501940199D0DC0125
:10142000CB018C0D9D1DAE1DBF1DB7FF03C00197E5
:10143000A109B04888839983AA83BB83BC01CD01ED
:101440009F77DF91CF91FF90EF90DF90CF90BF908B
:10145000AF909F908F9008958F929F92AF92BF927E
:10146000CF92DF92EF92FF9260911202709113027D
:101470008091140290911502611571058105910505
:1014800021F464E279ED8BE597E02DE133EF41E063
:1014900050E036D049015A019B01AC01A7EAB1E402
:1014A0004BD06B017C01ACEEB4EFA501940150D0A0
:1014B000DC01CB018C0D9D1DAE1DBF1DB7FF03C010
:1014C0000197A109B0488093120290931302A09350
:1014D0001402B0931502BC01CD019F77FF90EF90ED
:1014E000DF90CF90BF90AF909F908F9008956093C2
:1014F00012027093130280931402909315020895C0
:10150000052E97FB16F400940FD057FD05D024D07C
:1015100007FC02D046F408C05095409530952195BF
:101520003F4F4F4F5F4F089590958095709561950F
:101530007F4F8F4F9F4F089531D0A59F900DB49F3F
:10154000900DA49F800D911D11240895B7FFF4CF35
:10155000F3DF821B930B0895A1E21A2EAA1BBB1B7B
:10156000FD010DC0AA1FBB1FEE1FFF1FA217B3076F
:10157000E407F50720F0A21BB30BE40BF50B661F85
:10158000771F881F991F1A9469F760957095809549
:1015900090959B01AC01BD01CF010895A29FB001C0
:1015A000B39FC001A39F700D811D1124911DB29F97
:1015B000700D811D1124911D0895EE0FFF1F881FCE
:1015C0008BBF0790F691E02D19940F931F93CF9343
:1015D000DF938230910510F482E090E0E0915003B7
:1015E000F091510320E030E0A0E0B0E0309719F135
:1015F000408151810281138148175907C8F084172F
:10160000950769F4109731F012960C931297139680
:101610001C9327C0009350031093510322C021153F
:10162000310519F04217530718F49A01BD01EF0173
:10163000DF01F801DBCF21153105F9F0281B390B4B
:101640002430310580F48A819B816115710521F078
:10165000FB019383828304C09093510380935003D2
:10166000FE01329644C0FE01E20FF31F8193919375
:1016700022503109398328833AC020914E0330919A
:101680004F03232B41F4209118023091190230931B
:101690004F0320934E03209116023091170221151B
:1016A000310541F42DB73EB740911A0250911B020B
:1016B000241B350BE0914E03F0914F03E217F30723
:1016C000A0F42E1B3F0B2817390778F0AC014E5FB2
:1016D0005F4F2417350748F04E0F5F1F50934F039D
:1016E00040934E038193919302C0E0E0F0E0CF017C
:1016F000DF91CF911F910F910895CF93DF930097C2
:1017000009F481C0FC01329713821282A091500328
:10171000B0915103109781F420813181820F931F82
:1017200020914E0330914F032817390751F5F0935C
:101730004F03E0934E0367C0ED0120E030E0CE1789
:10174000DF0740F44A815B819E0141155105F1F0AC
:10175000EA01F5CFD383C28340815181840F951F65
:10176000C817D90759F488819981840F951F02966B
:10177000918380838A819B819383828321153105A4
:1017800029F4F0935103E09350033DC0E901FB833A
:10179000EA8349915991C40FD51FEC17FD0761F4F5
:1017A00080819181840F951F0296E9019983888336
:1017B000828193819B838A83E0E0F0E012968D9191
:1017C0009C911397009719F0FD01DC01F7CF8D91E3
:1017D0009C9111979D012E5F3F4F820F931F209187
:1017E0004E0330914F032817390769F4309729F4D5
:1017F000109251031092500302C013821282B093D0
:101800004F03A0934E03DF91CF91089581E090E0C4
:08181000F89400C0F894FFCF2A
:101818006B03000000000000001010000000100022
:1018280000000100000000005203800007000400CF
:101838000800040000000000C4022E025C0210032D
:101848008D026B027F025465726D696E6172206A47
:081858007565676F000D0A00C1
:00000001FF
